:020000040800F2
:1000000000000120B1C00008E5350008F135000806
:10001000F5350008F9350008FD350008000000003E
:100020000000000000000000000000000136000891
:100030000536000800000000093600080D360008EB
:1000400001C1000801C1000801C1000801C1000888
:1000500001C1000801C1000801C1000801C1000878
:1000600001C1000801C1000801C1000811360008E3
:1000700001C100081D36000801C1000801C10008C7
:1000800029360008353600084136000801C100084D
:1000900001C1000801C1000801C100084D36000877
:1000A00001C1000801C1000801C1000801C1000828
:1000B00001C10008000000000000000001C10008AC
:1000C00001C10008000000000000000065360008C3
:1000D0000000000001C100087136000800000000A7
:1000E0007D36000801C1000800000000000000008B
:1000F0000000000000000000000000000000000000
:1001000000000000000000000000000001C1000825
:10011000000000000000000001C1000801C100084B
:1001200001C1000801C1000801C1000885360008AE
:1001300001C10008000000000000000000000000F5
:1001400001C1000801C1000801C1000801C1000887
:1001500001C1000801C1000801C1000801C1000877
:1001600001C1000801C1000801C100080000000031
:1001700001C1000801C100080000000000000000EB
:0C01800001C1000801C1000801C1000815
:1001C0000348044B834202D0034B03B118477047E6
:1001D0008400002084000020000000000548064B39
:1001E0001B1AD90F01EBA301491002D0034B03B135
:1001F00018477047840000208400002000000000A1
:1002000010B5064C237843B9FFF7DAFF044B13B15E
:100210000448AFF300800123237010BD8800002044
:100220000000000004C1000808B5044B1BB10449DC
:100230000448AFF30080BDE80840CFE700000000AD
:100240008C00002004C1000810EE101AC1F3C75240
:100250000029A2F17F0CACBF01204FF0FF30BCF1B0
:100260001E0F0FDCBCF1000F1DDBC1F31603BCF148
:10027000160F43F400030ADD963A03FA02F202FB7A
:1002800000F07047FDEEC07A17EE900A70474FF409
:10029000800242FA0CF21A44CCF1170C22FA0CF24A
:1002A00002FB00F07047BCF1FF3F18BF0020704711
:1002B00038B52DED028B55EC104B00F02DF8224691
:1002C0002B4620462946B0EE408AF0EE608A01F0C7
:1002D000CFFB30B9002200232046294601F0A0FBC5
:1002E00030B9B0EE480AF0EE680ABDEC028B38BDBA
:1002F00001F0C4FE002200232121016010461946AE
:1003000001F046FA41EC180BB0EE480AF0EE680A2C
:10031000BDEC028B38BD00BF2DE9F047774855ECA6
:10032000104BA84300F0A480002D21462A46234606
:1003300056DD2C1500F0D080C2F31302E107A4F2C1
:10034000FF3742F4801203D4D90F01EB42025B0065
:100350005200002602EBD3727F105B001624B446D5
:100360004FF400110CEB010090424FEAD3754FEAB5
:10037000430303DC00EB010C121A0E44013C05EBB5
:1003800042024FEA5101EDD1A04620254FF0004036
:100390000AE03CD0510001EBD371013D0A464FEA1F
:1003A00043034FEA50003ED0944508EB000EF0DACC
:1003B000BEF1000F0EEB00080CDBE146A2EB0C01D6
:1003C0009E4588BF01F1FF314900CC46A3EB0E03E7
:1003D0000444E0E7B8F1000FEFDB0CF10109EDE7B1
:1003E00025F0004020433DD0002D68D1D90A153AB0
:1003F0005B050029FAD0CE02144618460A466CD591
:1004000020254FF0FF31E840641A024394E79E45EF
:1004100002D94FEA4C01BEE7BEF1000F0EEB000817
:1004200022DB0021D2E7194310D0DFF8D4A0DAE9AB
:100430000001DAE9022300F0C9FEDAE90089024688
:100440000B464046494601F0F5FAF8B965087110C7
:1004500001F17F5101F5001101EB075345EAC67226
:1004600043EC102BBDE8F087B8F1000FB5DAD8E700
:1004700022462B462046294601F060F822462B46AC
:1004800000F0A6FE41EC100BBDE8F087B4F1FF3F91
:10049000DAE90001DAE902232BD000F099FEDAE96B
:1004A000008902460B464046494601F0B9FA10B3AE
:1004B000A31C04F1020508BF01366D08C7E72246F8
:1004C0002B462046294600F081FE02460B4601F0ED
:1004D0005FF941EC100BC5E7084600235200D50236
:1004E000194603F10103F9D5C3F1200500FA03F31E
:1004F00089E70136ABE70134A8E700BF0000F07FD1
:1005000020C1000810EE102AC2F3C7537F3B162B00
:1005100022F0004132DC002B104618DB1A49194149
:100520000A422AD0DFED197A70EE277AF5EEC07A0A
:10053000F1EE10FA21DD002A04DD4FF4000242FA48
:1005400003F3184420EA010300EE103A7047DFED90
:100550000F7A70EE277AF5EEC07AF1EE10FA0CDD24
:10056000002A08DBDFED0A7A0029B7EE000A08BF8F
:10057000B0EE670A70479FED070A7047B1F1FF4F71
:10058000FBD330EE000A7047FFFF7F00CAF24971CB
:10059000000000000000008010EE103A194923F01E
:1005A00000428A421BD9B2F1FF4F02D330EE400A1B
:1005B000704700B583B0684600F070F800F00300A3
:1005C0000128DDED010A9DED000A13D002280BD0B1
:1005D00098B9012000F01AF803B05DF804FBDFEDD4
:1005E0000A0A002000F012B8012000F00FF8B1EE66
:1005F000400AF1E700F01AFDEEE700F017FDB1EE5A
:10060000400AE9E7D80F493F0000000010EE103A19
:1006100023F00043B3F1485F04D2FDEEC07A17EE39
:10062000903A5BB360EE007A9FED157ADFED155AD4
:100630009FED156ADFED156AE7EE875A9FED147A94
:10064000A5EEA76A20EE275AE6EE276AA6EEA77A5D
:1006500030B9DFED106AE7EE876AA6EE850A7047CB
:1006600027EE457AF6EE006AA0EEA67ADFED0A6A7A
:10067000D7EE270AE5EE260A30EE600A704700BF83
:10068000D3C92E2F342FD7B21BEF3836010D50B9F6
:100690008988083CABAA2ABEABAA2A3E70B510EEE8
:1006A000103A884A23F00044944286B0054671D936
:1006B000854A94421E4624D823F00042002BDFEDE9
:1006C000837A834922F00F02B0EE407A40F3E08053
:1006D0008A4270EE677A09BF9FED7E7ADFED7E6A0F
:1006E000DFED7E6A77EEC77A37EEE67A77EEC77A85
:1006F00080ED007A77EEE67AC0ED017A012006B04F
:1007000070BD774A944252D9B4F1FF4F48D2E215F6
:10071000863AA4EBC25307EE903ABDEEE77ADFEDDE
:10072000716AB8EEC77A77EEC77A8DED037A67EE15
:10073000A67ABDEEE77AB8EEC77A77EEC77A8DED86
:10074000047A67EEA67AF5EE407AF1EE10FACDED76
:10075000057A40F09880B5EE407AF1EE10FA0CBFC1
:1007600001230223604901910221009103A8294637
:1007700000F0CCF8002EC2DA95ED007AD5ED017AC2
:10078000B1EE477AF1EE677A85ED007AC5ED017A30
:100790004042B4E7002285ED000A42600020AEE747
:1007A00070EE407AC0ED017AC0ED007AF6E700F015
:1007B000A5F89FED4E7A9FED456AF6EE007AE0EEE1
:1007C000077A9FED457AFDEEE77A17EE900AF8EE8C
:1007D000E76A1F28A6EEC60A66EE877AB1EE666A59
:1007E00020DC434A411E26F0004352F8212023F02A
:1007F000FF03934216D030EE677A30EE470A002EA0
:1008000030EE670A85ED007A85ED010ABFF677AF15
:10081000B1EE477AB1EE400A85ED007A85ED010A26
:1008200040426CE730EE677AE21517EE103AC3F3F8
:10083000C753C3EBD453082BDFDD9FED267A9FED22
:10084000275AF0EE405AE6EE075A70EE657AE6EE69
:10085000077AD6EE857A35EEE77A17EE103AC3F3CB
:10086000C753D21A192A10DD9FED227A9FED225A22
:10087000B0EE650AA6EE070A75EEC07AE6EE077AD4
:10088000D6EE857AB7E703236CE7B0EE650AB4E7E6
:100890008A4270EE277A09BF9FED0E7ADFED0E6A6D
:1008A000DFED0E6A77EE877A37EEA67A77EEC77AB3
:1008B00080ED007A77EEA67AC0ED017A4FF0FF3036
:1008C0001DE700BFD80F493FE3CB1640800FC93F5B
:1008D000D00FC93F004435374344353708A3852E30
:1008E000800F494300008043B0C1000884F9223FD3
:1008F00030C1000800A3852E32318D2410EE103A4D
:1009000023F0004300EE103A704700BF2DE9F04F8E
:100910002DED048BDBB01C46944603930A46CD4B69
:1009200068991CF1040F53F82160824604F1FF38E6
:10093000C0F24982BCF1030348BF0CF10403DB1091
:10094000029301334FEAC30EACEB0E030593029BF7
:1009500016EB0800A3EB080316D401309FEDBE7A16
:10096000699C18441EA9002BA4BF54F8235007EE1D
:10097000905A03F10103ACBFF8EEE77AF0EE477A44
:100980008342E1EC017AEED1002EC0F2B182039BEA
:100990001EA901EB830446AD4FEA83094046F718D0
:1009A0000AEB8301B8F1000FDFEDAB7A09DBA34658
:1009B0005346F3EC016A3BED017A8B42E6EE877A0F
:1009C000F7D10130B842E5EC017A04F10404E9D131
:1009D0000DF1280B0BEB8603CDE9062E043B9FEDB2
:1009E000A09ADFED9E8A059804930AEB090446AFAE
:1009F0000BEB86090096CDF820C05AAB03EB8603BB
:100A0000002E13ED140A4FEA860515DD7B195A46B0
:100A100060EE097AB0EE407AFDEEE77A73ED016A96
:100A2000F8EEE77ABB42A7EEE87A37EEA60ABDEE0B
:100A3000C77AA2EC017AEBD1019000F085FAF4EECE
:100A4000007AB0EE408A20EE270A00F071FBF2EE49
:100A5000007AA0EE678A01980028FDEEC89AF8EEA9
:100A6000E97A38EE678A6CDD06F1FF3EC0F10803D3
:100A70005BF82E2042FA03FC0CFA03F3D21AC0F101
:100A8000070119EE903A4BF82E200A416344002AE0
:100A900009EE903A00F3F080B5EE408AF1EE10FADC
:100AA00040F09D80009B9E420ADD5D44002355F886
:100AB000041D4D4543EA0103F9D1002B40F0F280BB
:100AC000009B013B5BF82330002B40F0E780049B48
:100AD000012153F8042D0131002AFAD0731C31444E
:100AE0009C46029D039A05EB030E0EF1804E699D14
:100AF00032440EF1FF3E07EB83061EAB05EB8E0E74
:100B000003EB8205DEED017AF8EEE77AB8F1000F2B
:100B10000EF1040EE5EC017ADFED4F7A09DB2A468F
:100B20005346F3EC016A32ED017AA342E6EE877A8E
:100B3000F7D10CF1010C6145E6EC017AE2DA0E46E0
:100B40005BE740F08F80731E5BF82320D211002AF0
:100B5000A2DD19EE903A002E03F1010309EE903A5E
:100B600040F3D48159464FF0000E51F8043B002B5E
:100B70006AD0C3F5807341F8043C04E00B68C3F10C
:100B8000FF0341F8043B0EF1010E7645F6DC01232C
:100B90009E4600280ADD012878D0022806D1711E61
:100BA0005BF8213003F03F0C4BF821C0022A7FF4A0
:100BB00073AFB7EE000A734630EE488A002B3FF45D
:100BC0006BAF0992019000F0BFF938EE408A0198AE
:100BD000099AB5EE408AF1EE10FA3FF463AF9246FF
:100BE000DDE9062EDDF820C00196AEEB0C00B0EE7C
:100BF000480A009E009200F0A7F9DFED186AB4EEF3
:100C0000E60AF1EE10FADDE90023F0EE407AC0F2D8
:100C100050819FED137A059920EE077A0831BDEED9
:100C2000C77A0591B8EEC77A5C1CE7EE667ABDEE2E
:100C3000C77AFDEEE77A17EE901A4BF8231017EEFD
:100C4000103A4BF8243046E00EF1010EB6458CDB2D
:100C50009E469EE7C8C400080000000000008043D4
:100C60000000803BF6EE007AB4EEE78AF1EE10FA6F
:100C700080F2988000220FE70133002E09EE903AAF
:100C80003FF770AF002301289E4686D1711E5BF8A6
:100C9000213003F07F0C4BF821C087E7731C9C4682
:100CA00019461EE733469246DDE905125C1EA1F1A6
:100CB00008005BF82410009E059061B903F18043A1
:100CC000013B0BEB8303014653F8040D013C08394B
:100CD0000028F9D0059105980092B7EE000A00F0BF
:100CE00033F9002C009AB0EE407AC0F20581601C06
:100CF00046AD5FED256A81000BEB800305EB8000BC
:100D000073ED017AF8EEE77A5B4567EE877A27EEB6
:100D1000267A60ED017AF3D10DF1C8080B1F46A8C1
:100D2000C718C646A44600259146002E73DB844AA8
:100D3000DFED847A3846002301E0AB4208DCF2ECB8
:100D4000016AB0EC017A01339E42E6EE877AF4DA6A
:100D50000CF1FF3CBCF1FF3FEEEC017A05F101051F
:100D6000A7F10407E1D1689B022B4A4656DC002B11
:100D70002EDC0ED1DFED737A414431ED017A41452D
:100D800077EE877AF9D15346002B40F0AE80C2ED62
:100D9000007A19EE903A03F007005BB0BDEC048BCB
:100DA000BDE8F08F19EE903A002E03F1010309EE31
:100DB000903AC8BF02223FF7D5AEF7EE007A37EE81
:100DC000C88A022268E600234FF0080E0293BBE5B2
:100DD0009FED5C7A414471ED017A414537EE277A07
:100DE000F9D1DDED327A534677EEC77A002B75D113
:100DF00082ED007A64B133A90123B1EC017A0133A9
:100E00009C4277EE877AF8DA53460BB1F1EE677AB7
:100E1000C2ED017ABDE7DFED4B7A99E7689B032BC2
:100E2000B7D1002C7ED008EB840595ED007AA000A8
:100E30002B46294671ED017AF0EE476A37EE277AA4
:100E4000414577EEC77A81ED007A77EEA67AC1ED5B
:100E5000017AEFD1012C65D095ED007A08F10401FB
:100E600073ED017AF0EE476A37EE277A994277EE12
:100E7000C77A83ED007A77EEA67AC3ED017AEFD1D7
:100E8000031DDFED307A434408F1080833ED017AA1
:100E9000984577EE877AF9D15346DDED326A9DEDBC
:100EA000337A73B9C2ED006A82ED017AC2ED027A3B
:100EB0006FE7FDEEC07A1C4617EE901A4BF8231030
:100EC00009E7F1EE666AB1EE477AF1EE677AC2EDB4
:100ED000006A82ED017AC2ED027A5AE7B1EE477AF2
:100EE00082ED007A002C86D190E7F1EE677A4EE72A
:100EF000039B4FEA83096BE5689B022B0EDC002BFA
:100F000013DC7FF446AFDFED0F7A3CE7022A7FF473
:100F1000C3ADF7EE007A37EEC88ABDE5689B032BB8
:100F20007FF437AFDFED077AB6E75346DDED327A6F
:100F300013B9002313606BE74FF00043136065E7BC
:100F4000D4C400080000000010EE103A33F0004155
:100F50001A4627D0B1F1FF4F21D213F0FF4F22D113
:100F6000DFED2B7A2B4A60EE277A904217EE903A0B
:100F700033DB4CF2503CC3F3C75160451A46A1F134
:100F8000190116DDDFED247ADFED246A002BB0EEC7
:100F9000677AB8BFF0EE667A27EE870A704730EEC0
:100FA000000A704770474CF2503C60454FEAD151FF
:100FB000E8DC0144FE29E5DC002915DC11F1160FFF
:100FC00019DB193122F0FF4242EAC15207EE902AA2
:100FD0009FED130A27EE800A7047DFED127A07EEC5
:100FE000103A27EE270A704722F0FF4242EAC15327
:100FF00000EE103A7047DFED0B7ADFED0B6A002B45
:10100000B0EE677AB8BFF0EE667A27EE870A7047CF
:101010000000004CB03CFFFFCAF24971CAF249F12E
:10102000000000336042A20D6042A28D10EE103A23
:1010300023F00043B3F1485F2CD2FDEEC07A17EEE7
:10104000903A002B60D060EE007A9FED317A9FEDF0
:10105000315ADFED315A9FED316ADFED316AA7EE8B
:10106000875A9FED307AE7EE855AA7EEA56AA7EE7C
:10107000867AE7EE876A67EEA66A60EEC00AB6EE89
:10108000007AE7EEA60AB7EE000AD7EE870A30EE3E
:10109000600A704760EE007A9FED1D7A9FED1D5A41
:1010A000DFED1D5A9FED1D6ADFED1D6A1E4AA7EE9A
:1010B000875A93429FED1B7AE5EE275AA5EEA76A61
:1010C000A6EE277AE7EE276A66EEA76AD5D9174A11
:1010D000934214D803F17F4307EE103AB7EE006A4B
:1010E00036EE476A60EEC00AF6EE005A97EEA57A31
:1010F000E7EEA60A37EE607A36EE470A7047B6EE9C
:10110000076AB5EE027AEDE7B7EE000A704700BF56
:101110004ED747ADF6740F317CF293B4010DD03742
:10112000ABAA2A3D610BB6BA9999993E0000483F97
:1011300010EE102AC2F3C7537F3B162B22F000415A
:1011400029DC002B104618DB1A4919410A4221D02C
:10115000DFED197A70EE277AF5EEC07AF1EE10FA2B
:1011600018DD002A04DA4FF4000242FA03F31844AF
:1011700020EA010300EE103A7047DFED0F7A70EEBF
:10118000277AF5EEC07AF1EE10FA03DD002A08DBCB
:101190009FED0A0A7047B1F1FF4FFBD330EE000A12
:1011A0007047DFED077A0029BFEE000A08BFB0EEF6
:1011B000670A7047FFFF7F00CAF249710000000014
:1011C0000000008081F0004102E000BF83F0004396
:1011D00030B54FEA41044FEA430594EA050F08BFD2
:1011E00090EA020F1FBF54EA000C55EA020C7FEA96
:1011F000645C7FEA655C00F0E2804FEA5454D4EB13
:101200005555B8BF6D420CDD2C4480EA020281EADC
:10121000030382EA000083EA010180EA020281EA14
:101220000303362D88BF30BD11F0004F4FEA013166
:101230004FF4801C4CEA113102D0404261EB410175
:1012400013F0004F4FEA03334CEA133302D05242FB
:1012500063EB430394EA050F00F0A780A4F10104B7
:10126000D5F1200E0DDB02FA0EFC22FA05F28018F1
:1012700041F1000103FA0EF2801843FA05F35941D7
:101280000EE0A5F120050EF1200E012A03FA0EFC56
:1012900028BF4CF0020C43FA05F3C01851EBE37180
:1012A00001F0004507D54FF0000EDCF1000C7EEB9D
:1012B00000006EEB0101B1F5801F1BD3B1F5001FDB
:1012C0000CD349085FEA30004FEA3C0C04F10104FA
:1012D0004FEA445212F5800F80F09A80BCF1004F23
:1012E00008BF5FEA500C50F1000041EB045141EAA5
:1012F000050130BD5FEA4C0C404141EB0101013C6E
:1013000028BFB1F5801FE9D291F0000F04BF01465C
:101310000020B1FA81F308BF2033A3F10B03B3F12E
:1013200020020CDA0C3208DD02F1140CC2F10C02BE
:1013300001FA0CF021FA02F10CE002F11402D8BF1C
:10134000C2F1200C01FA02F120FA0CFCDCBF41EAE8
:101350000C019040E41AA2BF01EB0451294330BDB7
:101360006FEA04041F3C1CDA0C340EDC04F1140494
:10137000C4F1200220FA04F001FA02F340EA03006B
:1013800021FA04F345EA030130BDC4F10C04C4F1B1
:10139000200220FA02F001FA04F340EA0300294691
:1013A00030BD21FA04F0294630BD94F0000F83F4DB
:1013B000801306BF81F480110134013D4EE77FEABE
:1013C000645C18BF7FEA655C29D094EA050F08BF0A
:1013D00090EA020F05D054EA000C04BF19461046EB
:1013E00030BD91EA030F1EBF0021002030BD5FEA2F
:1013F000545C05D14000494128BF41F0004130BD57
:1014000014F580043CBF01F5801130BD01F00045AA
:1014100045F0FE4141F470014FF0000030BD7FEA1D
:10142000645C1ABF194610467FEA655C1CBF0B4618
:10143000024650EA013406BF52EA033591EA030F2F
:1014400041F4002130BD00BF90F0000F04BF002127
:10145000704730B54FF4806404F132044FF000055A
:101460004FF0000150E700BF90F0000F04BF0021D3
:10147000704730B54FF4806404F1320410F0004539
:1014800048BF40424FF000013EE700BF42004FEA34
:10149000E2014FEA31014FEA02701FBF12F07F43B1
:1014A00093F07F4F81F06051704732F07F4208BF68
:1014B000704793F07F4F04BF41F40021704730B56F
:1014C0004FF4607401F0004521F000411CE700BFBB
:1014D00050EA010208BF704730B54FF000050AE03E
:1014E00050EA010208BF704730B511F0004502D53F
:1014F000404261EB41014FF4806404F132045FEA41
:10150000915C3FF4D8AE4FF003025FEADC0C18BFE9
:1015100003325FEADC0C18BF033202EBDC02C2F1DB
:10152000200300FA03FC20FA02F001FA03FE40EA6D
:101530000E0021FA02F11444BDE600BF70B54FF071
:10154000FF0C4CF4E06C1CEA11541DBF1CEA13554F
:1015500094EA0C0F95EA0C0F00F0DEF82C4481EAB7
:10156000030621EA4C5123EA4C5350EA013518BFD7
:1015700052EA033541F4801143F4801338D0A0FBC4
:1015800002CE4FF00005E1FB02E506F00042E0FB71
:1015900003E54FF00006E1FB03569CF0000F18BF77
:1015A0004EF0010EA4F1FF04B6F5007F64F540741F
:1015B00004D25FEA4E0E6D4146EB060642EAC621B2
:1015C00041EA55514FEAC52040EA5E504FEACE2E1F
:1015D000B4F1FD0C88BFBCF5E06F1ED8BEF1004F22
:1015E00008BF5FEA500E50F1000041EB045170BD9E
:1015F00006F0004646EA010140EA020081EA0301E2
:10160000B4EB5C04C2BFD4EB0C0541EA045170BDDD
:1016100041F480114FF0000E013C00F3AB8014F157
:10162000360FDEBF002001F0004170BDC4F10004A0
:10163000203C35DA0C341BDC04F11404C4F1200521
:1016400000FA05F320FA04F001FA05F240EA02007C
:1016500001F0004221F0004110EBD37021FA04F6B2
:1016600042EB06015EEA430E08BF20EAD37070BD6C
:10167000C4F10C04C4F1200500FA04F320FA05F0CB
:1016800001FA04F240EA020001F0004110EBD370CD
:1016900041F100015EEA430E08BF20EAD37070BD3D
:1016A000C4F1200500FA05F24EEA020E20FA04F316
:1016B00001FA05F243EA020321FA04F001F00041C5
:1016C00021FA04F220EA020000EBD3705EEA430E36
:1016D00008BF20EAD37070BD94F0000F0FD101F065
:1016E0000046400041EB010111F4801F08BF013C9E
:1016F000F7D041EA060195F0000F18BF704703F0DC
:101700000046520043EB030313F4801F08BF013D62
:10171000F7D043EA0603704794EA0C0F0CEA13551E
:1017200018BF95EA0C0F0CD050EA410618BF52EAD8
:101730004306D1D181EA030101F000414FF00000DE
:1017400070BD50EA410606BF1046194652EA4306EC
:1017500019D094EA0C0F02D150EA013613D195EA60
:101760000C0F05D152EA03361CBF104619460AD1A8
:1017700081EA030101F0004141F0FE4141F47001B2
:101780004FF0000070BD41F0FE4141F4780170BDA2
:1017900070B54FF0FF0C4CF4E06C1CEA11541DBF07
:1017A0001CEA135594EA0C0F95EA0C0F00F0A7F809
:1017B000A4EB050481EA030E52EA03354FEA013136
:1017C00000F088804FEA03334FF0805545EA131349
:1017D00043EA12634FEA022245EA111545EA106511
:1017E0004FEA00260EF000419D4208BF964244F1A8
:1017F000FD0404F5407402D25B084FEA3202B61AC7
:1018000065EB03055B084FEA32024FF480104FF49A
:10181000002CB6EB020E75EB030E22BFB61A75460E
:1018200040EA0C005B084FEA3202B6EB020E75EBA1
:10183000030E22BFB61A754640EA5C005B084FEA09
:101840003202B6EB020E75EB030E22BFB61A7546D6
:1018500040EA9C005B084FEA3202B6EB020E75EBE1
:10186000030E22BFB61A754640EADC0055EA060EA2
:1018700018D04FEA051545EA16754FEA06164FEAE5
:10188000C30343EA52734FEAC2025FEA1C1CC0D191
:1018900011F4801F0BD141EA00014FF000004FF01E
:1018A000004CB6E711F4801F04BF01430020B4F1DF
:1018B000FD0C88BFBCF5E06F3FF6AFAEB5EB030C97
:1018C00004BFB6EB020C5FEA500C50F1000041EB94
:1018D000045170BD0EF0004E4EEA113114EB5C0461
:1018E000C2BFD4EB0C0541EA045170BD41F4801134
:1018F0004FF0000E013C90E645EA060E8DE60CEA3C
:10190000135594EA0C0F08BF95EA0C0F3FF43BAF58
:1019100094EA0C0F0AD150EA01347FF434AF95EA0F
:101920000C0F7FF425AF104619462CE795EA0C0FF3
:1019300006D152EA03353FF4FDAE1046194622E7C0
:1019400050EA410618BF52EA43067FF4C5AE50EA9A
:1019500041047FF40DAF52EA43057FF4EBAE12E78A
:101960004FF0FF3C06E000BF4FF0010C02E000BF6B
:101970004FF0010C4DF804CD4FEA410C7FEA6C5C4E
:101980004FEA430C18BF7FEA6C5C1BD001B050EAF1
:10199000410C0CBF52EA430C91EA030F02BF90EADC
:1019A000020F0020704710F1000F91EA030F58BF9B
:1019B000994208BF90422CBFD8176FEAE37040F0FD
:1019C000010070474FEA410C7FEA6C5C02D150EA9B
:1019D000013C07D14FEA430C7FEA6C5CD6D152EA56
:1019E000033CD3D05DF8040B704700BF844610461B
:1019F00062468C461946634600E000BF01B5FFF71A
:101A0000B7FF002848BF10F1000F01BD4DF808EDE9
:101A1000FFF7F4FF0CBF012000205DF808FB00BFBA
:101A20004DF808EDFFF7EAFF34BF012000205DF814
:101A300008FB00BF4DF808EDFFF7E0FF94BF012061
:101A400000205DF808FB00BF4DF808EDFFF7CEFF62
:101A500094BF012000205DF808FB00BF4DF808EDA1
:101A6000FFF7C4FF34BF012000205DF808FB00BF72
:101A70004FEA410C7FEA6C5C02D150EA013C0AD18A
:101A80004FEA430C7FEA6C5C02D152EA033C02D17C
:101A90004FF0000070474FF0010070474FEA4102DD
:101AA00012F5001215D211D56FF47873B3EB6252B0
:101AB00012D94FEAC12343F0004343EA505311F0D7
:101AC000004F23FA02F018BF404270474FF0000069
:101AD000704750EA013005D111F0004008BF6FF0A7
:101AE000004070474FF00000704700BF4FEA4102CE
:101AF000B2F1E04324BFB3F5001CDCF1FE5C0DD96C
:101B000001F0004C4FEAC0024CEA5070B2F1004FB5
:101B100040EB830008BF20F00100704711F0804FB8
:101B200021D113F13872BCBF01F00040704741F47D
:101B300080114FEA5252C2F11802C2F1200C10FA81
:101B40000CF320FA02F018BF40F001004FEAC12365
:101B50004FEAD32303FA0CFC40EA0C0023FA02F309
:101B60004FEA4303CCE77FEA625307D150EA0133DF
:101B70001EBF4FF0FE4040F44000704701F00040AF
:101B800040F0FE4040F40000704700BF53B94AB92E
:101B9000002908BF00281CBF4FF0FF314FF0FF3075
:101BA00000F06AB9ADF1080C6DE904CE00F006F85A
:101BB000DDF804E0DDE9022304B070472DE9F047C9
:101BC000089D0E4604460F46002B4AD194468C458C
:101BD000B2FA82F260D942B1C2F12003974020FAF2
:101BE00003F30CFA02FC1F4394404FEA1C4E1FFA09
:101BF0008CF6B7FBFEF1230C0EFB117743EA07438B
:101C000001FB06F098420AD91CEB030301F1FF37F0
:101C100080F01581984240F21281023963441B1A08
:101C2000A4B2B3FBFEF00EFB103344EA034400FB06
:101C300006F6A6420AD91CEB040400F1FF3380F03B
:101C40000081A64240F2FD806444023840EA01402F
:101C5000A41B00211DB1D4400023C5E90043BDE809
:101C6000F0878B4205D90DB1C5E900010021084676
:101C7000F5E7B3FA83F1002946D1B34202D3824299
:101C800000F2F580841A66EB030201201746002D4E
:101C9000E5D0C5E90047E2E7002A40F09380A1EBD8
:101CA0000C034FEA1C471FFA8CFE0121B3FBF7F629
:101CB00007FB1630230C43EA00430EFB06F0984264
:101CC00008D91CEB030306F1FF3802D2984200F258
:101CD000D08046461B1AA4B2B3FBF7F007FB1033C3
:101CE00044EA03440EFB00FEA64508D91CEB04049D
:101CF00000F1FF3302D2A64500F2B6801846A4EBED
:101D00000E0440EA0640A5E7C1F120078B4022FA05
:101D100007FC4CEA030C06FA01FE20FA07F426FA47
:101D200007F344EA0E0400FA01F84FEA1C404FEAB8
:101D30001449B3FBF0FE1FFA8CF600FB1E3349EA90
:101D400003430EFB06F9994502FA01F20BD91CEB8D
:101D500003030EF1FF3A80F08580994540F28280BE
:101D6000AEF1020E6344A3EB0909A4B2B9FBF0F390
:101D700000FB139944EA094403FB06F6A64208D97E
:101D80001CEB040403F1FF3068D2A64266D9023B83
:101D9000644443EA0E40A41BA0FB02E6B44273462F
:101DA000B14652D34FD05DB1B8EB030264EB0904E6
:101DB00004FA07F722FA01F31F43CC40C5E9007487
:101DC00000214CE7C2F1200120FA01F30CFA02FCD9
:101DD00026FA01F1964033434FEA1C471FFA8CFE66
:101DE000B1FBF7F007FB1016190C41EA064100FBA6
:101DF0000EF68E4204FA02F408D91CEB010100F140
:101E0000FF382DD28E422BD902386144891B9BB2F8
:101E1000B1FBF7F607FB161143EA014306FB0EF18F
:101E2000994208D91CEB030306F1FF3814D29942FA
:101E300012D9023E63445B1A46EA004136E739464E
:101E4000EDE6184602E7F045ADD2BEEB020366EBC5
:101E50000C060138B146A6E74646ECE7034698E78C
:101E60004046D3E7D6467EE76444023847E7084653
:101E70000DE7023E63442DE7704700BF70B50F4B7E
:101E80000F4DAB42A3EB050607D0B610002455F862
:101E9000043B01349847A642F9D80AF033F9094DBA
:101EA000094B5E1BAB424FEAA60606D0002455F84C
:101EB000043B01349847A642F9D870BDF4CB000822
:101EC000F4CB0008F4CB0008F8CB000800000000B9
:101ED0000000000000000000000000000000000002
:101EE00000000000000000000000000000000000F2
:101EF00000000000000000000000000000000000E2
:101F000030B490F800F020F007016FF0000C10F0F2
:101F1000070491F820F040F048804FF000046FF083
:101F20000700D1E9002391F840F000F1080082FA9F
:101F30004CF2A4FA8CF283FA4CF3A2FA8CF34BBB6A
:101F4000D1E9022382FA4CF200F10800A4FA8CF2E3
:101F500083FA4CF3A2FA8CF3E3B9D1E9042382FAB1
:101F60004CF200F10800A4FA8CF283FA4CF3A2FAC6
:101F70008CF37BB9D1E9062301F1200182FA4CF2FE
:101F800000F10800A4FA8CF283FA4CF3A2FA8CF365
:101F9000002BC6D0002A04BF04301A4612BAB2FA87
:101FA00082F200EBD20030BC7047D1E9002304F08C
:101FB0000305C4F100004FEAC50514F0040F91F8C1
:101FC00040F00CFA05F562EA05021CBF63EA05035E
:101FD00062464FF00004AAE7830730B547D0541E8D
:101FE000002A3ED0CAB2034601E0013C39D303F8CF
:101FF000012B9D07F9D1032C2CD9CDB205EB05257A
:102000000F2C05EB054535D9A4F1100222F00F0C79
:1020100003F1100EE6444FEA121C1A46C2E90055BD
:10202000C2E9025510327245F8D10CF1010214F0E8
:102030000C0F03EB021204F00F0C13D0ACF10403ED
:1020400023F003030433134442F8045B9342FBD1AF
:102050000CF003042CB1C9B21C4403F8011BA342C9
:10206000FBD130BD64461346002CF4D1F9E703469A
:102070001446C0E71A46A446E0E700BF014B1868C3
:10208000704700BF00000020830730B427D10468E8
:10209000A4F1013323EA040313F0803F034608D17F
:1020A00053F8045FA5F1013424EA050414F0803FDD
:1020B000F6D01C781CB113F8014F002CFBD162B193
:1020C000013903EB020C11F8012F03F8012B22B1A7
:1020D0009C45F8D100238CF8003030BC7047034693
:1020E000E7E700BF844641EA000313F003036DD124
:1020F000403A41D351F8043B40F8043B51F8043BCB
:1021000040F8043B51F8043B40F8043B51F8043BD1
:1021100040F8043B51F8043B40F8043B51F8043BC1
:1021200040F8043B51F8043B40F8043B51F8043BB1
:1021300040F8043B51F8043B40F8043B51F8043BA1
:1021400040F8043B51F8043B40F8043B51F8043B91
:1021500040F8043B51F8043B40F8043B51F8043B81
:1021600040F8043B51F8043B40F8043B51F8043B71
:1021700040F8043B403ABDD2303211D351F8043B11
:1021800040F8043B51F8043B40F8043B51F8043B51
:1021900040F8043B51F8043B40F8043B103AEDD2C0
:1021A0000C3205D351F8043B40F8043B043AF9D211
:1021B000043208D0D2071CBF11F8013B00F8013BE4
:1021C00001D30B8803806046704700BF082A13D3F1
:1021D0008B078DD010F003038AD0C3F10403D21A09
:1021E000DB071CBF11F8013B00F8013B80D331F83D
:1021F000023B20F8023B7BE7043AD9D3013A11F8BD
:10220000013B00F8013BF9D20B7803704B78437027
:102210008B7883706046704708B410B5002A9DB073
:10222000044636DB4FF40273ADF814304FF0000370
:102230001B930291069120AB17D0013A4FF6FF7124
:1022400004920792ADF816101F9A019302A900F0AC
:1022500051F9421C01DA8B232360029B00221A7081
:102260001DB0BDE8104001B070474FF6FF710492F9
:102270000792ADF816101F9A019302A900F03AF9DF
:10228000431C01DA8B2323601DB0BDE8104001B070
:1022900070478B2303604FF0FF30F5E70CB410B5A7
:1022A000214B00291C689CB038DB4FF000034FF431
:1022B00002721B93ADF81420029006901FAB18D049
:1022C00001394FF6FF7204910791ADF8162002A96B
:1022D0001E9A0193204600F00DF9421C01DA8B236F
:1022E0002360029B00221A701CB0BDE8104002B0AF
:1022F00070474FF6FF7204910791ADF8162002A9BE
:102300001E9A0193204600F0F5F8431C01DA8B2356
:1023100023601CB0BDE8104002B070478B232360DF
:102320004FF0FF30F5E700BF000000202DE9F04737
:102330008F681D46AF420B680C46164636D8B1F979
:102340000CC01CF4906F0ED13D46184631462A460B
:1023500000F0EEFAA368DF1B2368A7602B4400207F
:102360002360BDE8F0874A69096902EB42025F1AFF
:1023700002EBD2726B1C52103B44934292BF9146C7
:1023800099461A461CF4806F804611D0114600F021
:10239000F1F9824600B321693A46FFF7A3FEA3890B
:1023A00023F4906343F08003A38105E02F46CCE73C
:1023B00000F08EFB824658B10AEB0703A9EB070732
:1023C000A760C4F810A0C4F8149023602F46BCE79F
:1023D0002169404600F04EFAA3890C2243F04003E5
:1023E000C8F800204FF0FF30A381BAE72DE9F04F85
:1023F0009368176883B09246002B74D04FF0000B9F
:102400008B680A6881460C465D4645E0B4F90C309D
:1024100013F4906F2CD0D4E90401161A01EB410299
:1024200002EBD272711C52102944914292BF904625
:1024300088460A465B0539D51146484600F09AF9A8
:10244000019000283DD032462169FFF74BFEA2895A
:10245000019B22F4906242F08002A2819819A8EBBD
:102460000606A660C4F8148023612060A8462E46A4
:102470003246594600F05CFADAF80810A368226880
:10248000A3EB08033244491BA3602260CAF808107A
:1024900049B3D7E900B5083798461046002DF8D063
:1024A0009D421E46B2D2A8462E46E1E70146484666
:1024B00000F00EFB03460028D0D12169484600F009
:1024C000D9F9A3890C2243F04003C9F800204FF04A
:1024D000FF30A38100220023CAF80820CAF8043084
:1024E00003B0BDE8F08F00200023CAF8043003B029
:1024F000BDE8F08F2DE9F04F1C468B891D069DB07D
:1025000088468146934603D50B69002B00F0F18085
:102510000023099343F22003ADF829309BF80030E3
:102520007D4D03940126002B73D0DA4603E01AF8A0
:10253000013F002B75D0252BF9D1BAEB0B0473D1D9
:102540009AF80020002A64D000234FF0FF32CDE932
:1025500005230AF1010A049307938DF853301A9367
:1025600005E0049A06FA03F31A430492A24654467D
:10257000052214F8011B284600F05AFAA346431B13
:102580000028EED1049BD80644BF20228DF85320AA
:1025900019079AF8001044BF2B228DF853202A29DE
:1025A00050D1039A11680432002903927CDB079111
:1025B0009AF801102E295BD0584C0322204600F0D7
:1025C00037FA38B1049B001B4022824013430BF1C1
:1025D000010B04931BF8011B51488DF828100622AB
:1025E00000F026FA002865D04E4B002B55D003AAE8
:1025F00000924D4B424604A94846AFF3008007467F
:102600007A1C06D0099B3B4409939BF80030002BB1
:102610008BD1B8F80C305B067AD409981DB0BDE8B0
:10262000F08FBAEB0B04F4D023465A464146484695
:10263000FFF77CFE0130ECD0099B9AF80020234480
:1026400009937FE7A1F13002092A88BFD346B1D8A8
:10265000079B00E00134217803EB830302EB430383
:10266000A1F13002092AF5D92E290793A346A3D157
:102670009BF801102A2927D1039B9BF802101A68A6
:1026800005920433002A0BF102000393B8BF4FF008
:10269000FF338346B8BF05938EE7039B073323F0D0
:1026A000070308330393ADE7494243F00203079160
:1026B00004937DE703AA00921B4B424604A94846B7
:1026C00000F0CAFA07469BE7A1F130020023092A6D
:1026D00005930BF1010B3FF66FAF1BF8011F03EBE6
:1026E000830302EB4303A1F13002092AF5D90593D4
:1026F00062E7402100F03EF8C8F80000C8F810007A
:1027000018B14023C8F8143002E70C23C9F8003090
:102710004FF0FF3082E700BF08C7000810C700086D
:1027200014C70008000000002D23000870B5104EEB
:10273000336805460C46B3B12146284600F0D2FB6B
:10274000431C0CD0C41C24F00304A04205D0211A61
:10275000284600F0C7FB013001D0204670BD4FF085
:10276000FF34204670BD194600F0BCFB3060E3E743
:10277000E00100202DE9F843CD1C25F003050835C4
:102780000C2D38BF0C25002D064618DBA94216D8A3
:10279000DFF8DC8000F0A2FBD8F80420A2B11446D8
:1027A00003E0636822467BB11C4623685B1BF8D4B8
:1027B0000B2B1FD89442636854D053600CE00C2359
:1027C00033600020BDE8F88329463046FFF7AEFFAE
:1027D000431C044619D00560304600F081FB04F12B
:1027E0000B00231D20F00700C21A1CBF1B1AA350A8
:1027F000BDE8F88361199442256014BF5160C8F8A0
:102800000410635163684B60E6E7D8F804701FB3A7
:102810003C467F68002FFBD123683946304604EBE5
:10282000030900F05FFB814516D12368ED1A2946A4
:102830003046FFF77BFF01300ED02368D8F8042024
:102840002B442360536883B1A34203D01A465B68CC
:102850009C42FBD10023B0E70C233360304600F0EC
:102860003FFBAEE7C8F80430B6E7C8F80470B3E73A
:10287000E0010020002950D038B551F8043C0C1F6D
:10288000002BB8BFE418054600F028FB274A136860
:102890002BB1A3420CD92168601883422CD063600D
:1028A00028461460BDE8384000F01ABBA3420FD898
:1028B0001A465B68002BF9D111685018844217D072
:1028C0002CD3636054602846BDE8384000F008BB54
:1028D00011685018A04214D020D821686018834293
:1028E000EFD118685B680844C4E900035460EAE764
:1028F00023680B441360E6E718685B6808442060AF
:10290000CDE720680144501883421160DBD1D3E940
:1029100000040144C2E90014D5E770470C232B6082
:102920002846BDE8384000F0DBBA00BFE4010020D3
:1029300088420ED98B1883420BD900EB020C002A77
:102940006ED0624613F801CD02F801CD9942F9D15B
:1029500070470F2A0FD8034602F1FF3C002A5FD0D0
:102960000CF1010C013B8C4411F8012B03F8012FF1
:102970006145F9D1704740EA01039B0751D1A2F1AB
:10298000100370B501F1200C23F00F0501F1100EBA
:1029900000F11004AC441B095EF8105C44F8105CB4
:1029A0005EF80C5C44F80C5C5EF8085C44F8085C6B
:1029B0005EF8045C44F8045C0EF1100EE64504F188
:1029C0001004E9D1013312F00C0F01EB031102F0F6
:1029D0000F0400EB031328D0043C24F003064FEA55
:1029E000940C1E441C1F8E465EF8045B44F8045F82
:1029F000B442F9D10CF1010402F0030203EB8403A9
:102A000001EB840102F1FF3C4AB10CF1010C013BE6
:102A10008C4411F8012B03F8012F6145F9D170BDE9
:102A2000704702F1FF3C03469AE72246EAE700BFFF
:102A300001F0FF01102A2BDB10F0070F08D010F86F
:102A4000013B013A8B422DD010F0070F42B3F6D173
:102A5000F0B441EA012141EA014122F007047FF08C
:102A600000070023F0E80256083C85EA010586EAE3
:102A7000010685FA47F5A3FA87F586FA47F6A5FA1F
:102A800087F68EB9EED1F0BC01F0FF0102F007022B
:102A900032B110F8013B013A83EA010313B1F8D1D6
:102AA0000020704701387047002D06BF35460338B7
:102AB000073815F0010F07D1013015F4807F02BFF0
:102AC000013015F4C03F0130F0BC0138704700BF41
:102AD0002DE9F041144641B30AB306460D4600F015
:102AE00013FA8442074602D8B4EB500F13D821469C
:102AF0003046FFF73FFE804650B1BC422246294691
:102B000028BF3A46FFF7EEFA29463046FFF7B2FEF5
:102B10004046BDE8F081A8464046BDE8F081A046A9
:102B2000FFF7A8FE4046BDE8F081BDE8F041114640
:102B3000FFF720BE2DE9F84F92461F460A698B68C1
:102B4000DDF828909A42B8BF1A46CAF8002091F8DA
:102B500043300C46064613B10132CAF80020226801
:102B600091065FD5DAF800300233CAF800302268E7
:102B700012F0060F11461DD1E1689942D8BF1146E7
:102B800018DD4FF0000804F1190B05E0E568DAF8EC
:102B90000030ED1A45450CDD01235A4639463046D2
:102BA000C847013008F10108F0D14FF0FF30BDE80F
:102BB000F88F216894F84330003B18BF01238A0640
:102BC0000AD5E1185A1C302081F84300224494F8B9
:102BD000451082F84310023304F14302394630466F
:102BE000C8470130E1D02368DAF80050216903F0CA
:102BF0000603042BD4E902201BD08A4220DD4FF0CB
:102C00000008521A90441A34002501E0454517DAAD
:102C10000123224639463046C847013005F10105F7
:102C2000F4D1C2E712F0060F0DD0003B18BF01230C
:102C3000D2E7401B8A4220EAE078E2DC0028E2DCAE
:102C40000020BDE8F88FE168DAF800309942D8BF7B
:102C5000114696DCAEE700BF2DE9F047174684B079
:102C60000A7E0C9D0C460646984601F1430C002A4C
:102C700035D0A2F15803D9B2202969D8202B67D8C2
:102C8000DFE813F0E6006600660066006600660096
:102C900066006600660066006600AC0070006600B4
:102CA00066006600660070006600660066006600EA
:102CB00021008300C60066006600B600660083003F
:102CC00066006600EC002B6822686169181D2860A8
:102CD00010061B6802D4520600F1E0801960002340
:102CE000E1462361CDF800803B4603AA21463046E9
:102CF000FFF720FF013020D023694A46394630468D
:102D0000C047013019D02368E068DDF80C909B07BC
:102D100018D5484516DD002504F1190A04E0E068DD
:102D2000A0EB0903AB420DDD012352463946304684
:102D3000C047013005F10105F1D14FF0FF3004B07B
:102D4000BDE8F0874845B8BF484604B0BDE8F08705
:102D500084F84220012004F142090023206184F814
:102D60004330BFE72A682368111D1806296002D482
:102D7000590600F195801068014600286268C0F28B
:102D8000938054484FF00A0E15E020682B6810F02D
:102D9000800F53F8041B02D1400648BF89B26F2A46
:102DA0004C482B6014BF4FF00A0E4FF0080E002362
:102DB000626884F84330002AA26051DB236823F064
:102DC0000403236000294BD1002A7BD1E146BEF1E8
:102DD000080F56D0ACEB0903236183E72B681A6810
:102DE00004332B6004F1420984F842200120B4E747
:102DF0002B686268191D2960D3F8009000214846AD
:102E0000FFF716FE002863D0A0EB09006060A4E77E
:102E1000236843F02003236078222F4884F845205C
:102E20002A6813F0800F52F8041B03D113F0400FEF
:102E300018BF89B22A60DA0744BF43F02003236039
:102E400019B9236823F0200323604FF0100EAEE77A
:102E5000582384F845301F482368E1E72368DBE7FF
:102E60007546E146B1FBF5F305FB131A0A46AA4283
:102E700010F80A1009F8011D1946F3D2BEF1080F27
:102E8000A8D12368DD07A5D5626823699A42A1DC31
:102E9000302309F8013C09F1FF399BE719801EE74F
:102EA000B2F90010084668E72D20002AA26084F8D5
:102EB000430002DB23F0040323600A25054849424E
:102EC000AE46CEE7037884F8423004F142097EE74B
:102ED000606842E71CC7000830C70008704700BFA1
:102EE000704700BF38B5074D0022044608462A60E7
:102EF00000F0CEFB431C00D038BD2B68002BFBD06C
:102F0000236038BDE801002051F8043C181F002B55
:102F1000BCBF0B58C01870472048214910B501604C
:102F20004FF48031002341600421C0E904314FF4A3
:102F3000E86181624FF4806186B00122C1624FF482
:102F40008051CDE90033CDE90233CDE90433C0E946
:102F500002330383C26180F8203080F8302041635F
:102F600080F8383004F0C4FC88B90E480622CDE958
:102F7000000200237F24042208486946CDE9023478
:102F8000CDE9042304F02AFF20B906B010BD00F0FB
:102F900091FAEAE700F08EFA06B010BD3402002084
:102FA000000004502000F01470B504469CB00021CD
:102FB000542207A8CDE90211CDE904110691FFF7CB
:102FC0000BF82C4B22689A4201D01CB070BD4FF414
:102FD00080424FF0405307A80792199307F04EF82C
:102FE000002840D1244B254DDA6C42F40052DA64BB
:102FF000DA6C02F400520092009ADA6C42F001029C
:10300000DA64DB6C03F0010301930122002602A9BC
:103010000B234FF09040CDE902230496019B06F06C
:1030200099F9174B8022C5E900364FF48073C5E942
:1030300004234FF4806120224FF440532846C5E911
:103040000266C5E906122B6205F0B0FE70B90022D7
:103050000121E5641220AC6205F096FB122005F018
:10306000CFFB1CB070BD00F025FABBE700F022FAE0
:10307000EDE700BF0000045000100240EC0100200A
:10308000080002400848094908B501220023C0E9A8
:10309000053301608380026205F028FC00B908BD99
:1030A000BDE8084000F006BA980200200030024057
:1030B000094B02689A4200D07047A3F5005382B0D2
:1030C0009A6C42F480529A649B6C03F4805301938F
:1030D000019B02B0704700BF0030024000000000BA
:1030E00000B58BB0242200216846FEF775FF144816
:1030F000144B036005F0C6FC88B99FED0D7B8DED88
:10310000007B9FED0D7B00220D48049269468DEDFA
:10311000027B05F095FD28B90BB05DF804FB00F0CB
:10312000C9F9EAE700F0C6F90BB05DF804FB00BF8F
:10313000000000001400000000000000000000007B
:10314000040300200074004070B5244B026888B06E
:1031500000249A42CDE90244CDE90444069401D00A
:1031600008B070BD03F5CE3305469A6D1C4E42F093
:1031700000529A659A6D02F000520092009ADA6C41
:1031800042F00102DA64DB6C03F0010301931022C8
:1031900003234FF0904002A9CDE90223019B06F0E2
:1031A000D9F8104A0323C6E9002310228023C6E978
:1031B000022433614FF480724FF48063C6E9052323
:1031C00030462023C6E9073405F0F0FD18B9AE609B
:1031D000B56208B070BD00F06DF9F8E7007400400A
:1031E000BC020020440402401F4B10B5986C40F014
:1031F000010098649C6C82B004F001040094009C6F
:103200009C6C44F002049C649B6C002203F002035B
:10321000114601930B20019B05F0B6FA0B2005F037
:10322000EFFA002203210D2005F0AEFA0D2005F083
:10323000E7FA00220221102005F0A6FA102005F07E
:10324000DFFA00220221112005F09EFA112005F07C
:10325000D7FA002204213B2005F096FA3B2002B069
:10326000BDE8104005F0CCBA0010024070B5002453
:103270008AB0CDE90444CDE90644494B0894DA6CA0
:10328000484E42F00402DA64DA6C02F00402009262
:10329000009ADA6C42F00102DA64DA6C02F00102A0
:1032A0000192019ADA6C42F00202DA64DA6C02F0FE
:1032B00002020292029ADA6C42F08002DA64DB6C5B
:1032C000012203F08003039311463046039B06F06E
:1032D00025F9224630461A2106F020F922464FF4FD
:1032E000C0514FF0904006F019F96022032304A961
:1032F0004FF090400125CDE90423069406F02AF80A
:10330000032304A930460493CDE90554079506F03C
:1033100021F84FF480624FF4041304A94FF0904059
:10332000CDE90423069506F015F84FF4C053049335
:1033300004A902234FF090400793CDE9055406F00D
:1033400009F8182304A930460493CDE905540794DD
:1033500006F000F804A93046E0224FF40413CDE94A
:103360000423069505F0F6FF0323082204A90E485E
:103370000694CDE9042305F0EDFF22460521172030
:1033800005F002FA172005F03BFA22460521282015
:1033900005F0FAF9282005F033FA0AB070BD00BF35
:1033A0000010024000040048001C00480848094979
:1033B00010B502224FF47A7340F6FF7480E81E00C5
:1033C00006F0BEF800B910BDBDE8104000F072B8BC
:1033D000180300200030004010B598B044220021AE
:1033E00006A8FEF7F9FD00234FF40070CDE9013384
:1033F000CDE90333059306F0EBF808B172B6FEE7AA
:10340000044606F0D5F81A4AD2F890301C2123F071
:103410001803C2F890300123022206916021CDE901
:103420000B33CDE9113308930E910223282110921A
:10343000169206A80722CDE914230D94139106F0E5
:10344000A3F9034608B172B6FEE704210F24032254
:103450000DEB0100CDE90142CDE90333059306F000
:10346000A5FC08B172B6FEE706F05AFF18B010BD11
:103470000010024008B504F007FAFFF7ADFFFFF7B0
:10348000F5FEFFF7B1FE00F0C7FAFFF745FD00F0CB
:1034900013F800F069F9FFF723FE00F025F900F0BA
:1034A00057FA00F08BF9FFF7EDFD01F041FD01F057
:1034B00087FEFCE772B6FEE7104811494FF48272AE
:1034C00010B5C0E900124FF4007200234FF4E0641D
:1034D000182182610722C0E90234C0E90433C0E93F
:1034E0000713C0E90933C0E90B23436307F016F85B
:1034F00000B910BDBDE81040FFF7DCBF700300202D
:1035000000300140F0B5284B026889B000249A428F
:10351000CDE90244CDE90444069401D009B0F0BDE0
:1035200003F56043214E1A6E42F480521A661A6EF9
:1035300002F480520092009ADA6C42F00102DA64DE
:10354000DB6C03F00103019382220223CDE9022305
:1035500001270523054602A94FF09040CDE90573E8
:10356000019A05F0F7FE124B33601023C6E9017390
:1035700080224FF480533046C6E90342C6E9054431
:10358000F461336205F012FC58B9002203216E6524
:103590002320B56205F0F8F8232005F031F909B0D1
:1035A000F0BDFFF787FFF0E700300140280300205F
:1035B000300002400A4B1A6E42F001021A661A6E7F
:1035C00082B002F001020092009A9A6D42F080529D
:1035D0009A659B6D03F080530193019B02B0704785
:1035E0000010024008B503F07DF900B9FEE708BD00
:1035F000FEE700BFFEE700BFFEE700BFFEE700BF3B
:10360000704700BF704700BF704700BF04F04CB95F
:10361000014805F0CDBC00BFEC010020014805F0D9
:10362000C7BC00BF28030020014805F0C1BC00BF93
:1036300058050020014805F0BBBC00BF1005002064
:10364000014804F089BA00BF3402002008B52020E8
:1036500005F06AFF402005F067FFBDE808408020C4
:1036600005F062BF014807F099B900BF7003002060
:10367000014808F083B800BFA00500204FF4806027
:1036800005F052BF014805F093BC00BFBC0200200A
:103690000C490D4A0B6810B50C4C121B2BB1184489
:1036A000904207D80860184610BD094B0B601844BB
:1036B0009042F7D9FEF7E2FC0C2303604FF0FF3392
:1036C000184610BDD40300200000012000100000A7
:1036D000C0AF0020034AD2F8883043F47003C2F828
:1036E0008830704700ED00E010B51D481D4A0260AB
:1036F0008CB000234FF6FF7101240A22CDE900337C
:10370000C0E90133C0E904330493069308930A9394
:103710000293C160836103A9032303930594079275
:1037200009940B9207F084FD60B99FED0B7B002399
:103730000B48029369468DED007B07F08FFE20B9A0
:103740000CB010BDFFF7B6FEEFE7FFF7B3FE0CB00D
:1037500010BD00BFAFF300800000000000000000BB
:10376000C0040020002C014000B51248124985B069
:103770000023CDE90133C0E90013112203938360D4
:103780008023C260836107F0EFFC58B92022002338
:103790000848019201A9039307F060FE28B905B01B
:1037A0005DF804FBFFF786FEF0E7FFF783FE05B048
:1037B0005DF804FB280400200010004000B5134809
:1037C000134985B00023CDE90133C0E9001340F26D
:1037D0001F32039383608023C260836107F0C4FCBF
:1037E00058B9202200230948019201A9039307F048
:1037F00035FE28B905B05DF804FBFFF75BFEF0E786
:10380000FFF758FE05B05DF804FB00BFD8030020A9
:103810000014004010B5184A016888B00023914296
:10382000CDE90233CDE90433069301D008B010BDD1
:1038300003F1804303F5043301241A6E42F400625D
:103840001A661A6E02F400620092009ADA6C224341
:10385000DA64DB6C0494234001934FF4407202A9B4
:1038600002234FF09040CDE902230694019B05F01E
:1038700071FD08B010BD00BF002C01400368B3F11A
:10388000804F84B013D0164A934204D0154A934215
:103890001AD004B07047144B9A6D42F010029A652A
:1038A0009B6D03F010030293029B04B0704703F575
:1038B00004339A6D42F001029A659B6D03F0010397
:1038C0000193019B04B07047074B9A6D42F02002B0
:1038D0009A659B6D03F020030393039B04B070472C
:1038E00000100040001400400010024000000000E2
:1038F00000B5026889B00023B2F1804FCDE90233F0
:10390000CDE90433069302D009B05DF804FB03F15E
:10391000804303F504339FED0C7BDA6C42F0010227
:10392000DA64DB6C03F00103019302A901234FF079
:1039300090408DED027B019A069305F00BFD09B0D6
:103940005DF804FBAFF300800800000002000000F7
:1039500000B52F4891B00023CDE90433CDE90633FB
:10396000CDE90133CDE90833CDE90A33CDE90C3394
:10397000C0E9013303930E930361802383614FF009
:103980008043036040F69F73C36007F0EDFB30BBDC
:103990004FF480531E48049304A907F0CFFA78BB74
:1039A0001B4807F013FC40BB00231948019301A9F1
:1039B000039307F053FDE8B99FED137B00231448F0
:1039C0000A930C2208A98DED087B0C9307F0C2FC2A
:1039D00040B90F48FFF78CFF11B05DF804FBFFF70B
:1039E00069FDD5E7FFF766FD0948FFF781FF11B0D4
:1039F0005DF804FBFFF75EFDDEE7FFF75BFDD3E755
:103A0000FFF758FDCCE700BF60000000D0070000C2
:103A1000740400200000000010B51148114C9FED07
:103A20000E7B4FF461220023C0E900420C213022BA
:103A3000C0E90233C0E90431C0E9063380ED0E7BF2
:103A40000362426208F08EFA00B910BDBDE8104072
:103A5000FFF730BDAFF30080001000000020000031
:103A6000A005002000440040F0B504469DB00021B0
:103A7000542207A8CDE90211CDE904110691FEF701
:103A8000ABFA3E4B22689A4201D01DB0F0BD022332
:103A900007A8079306F0F2FA002865D1384B9A6D13
:103AA00042F400329A659A6D02F400320092009A54
:103AB000DA6C42F00102DA64DB6C042003F00103EB
:103AC0000221CDE90201019300260723032702A961
:103AD0004FF09040CDE90467019A069305F03AFC57
:103AE00003234FF4004202A94FF0904006930223B3
:103AF000CDE90223CDE9046705F02CFC214E2249D3
:103B000002220023C6E900128021C6E90233C6E979
:103B100004132022B36130464FF48053C6E90723D3
:103B200005F044F930BB194D19496667022200239C
:103B3000C5E90012284610218022C5E90213C5E913
:103B40000533C5E90733B4622A6105F02FF970B96E
:103B50000022022125672620AC6204F015FE2620F3
:103B600004F04EFE1DB0F0BDFFF7A4FC96E7FFF792
:103B7000A1FCEDE7FFF79EFCD5E700BF0044004045
:103B800000100240580500206C0002401005002083
:103B90008000024038B5D0E90552836804460069C8
:103BA000AD1A9847A36BC01A854231DCD4E90330C3
:103BB00000219847A36820699847A26BE36D61686C
:103BC000E0631544451BAB42A36938BFE565043388
:103BD0009B1A1844814207D3A36C0322013384F853
:103BE0002F20A364012038BDA36DE2682069013352
:103BF0000121A3659047A36820699847C4E90C0098
:103C00000021002201232164A4F8442084F82F30ED
:103C1000002038BD2DE9F84300F108070546164697
:103C200098468946582200213846FEF7D5F9730890
:103C3000A6EB08018B4228BF0B46022B38BF02239C
:103C40004FF0320CA3FB0CC14FEA1C5444EA013480
:103C5000CCF31300194AC5F800902044A2FB00429F
:103C6000D20802EB820202EB8202801A144AC5F8E3
:103C70001C80BCEB000C13486E6061F1000102FB7C
:103C80000CF200FB0122ACFB00C002444FEA9C0492
:103C900044EA8274089ADFF830C007CAA34298BF8A
:103CA00003F1FF344FF4805E87E80700C5E909ECB3
:103CB000C5E905342E62BDE8F88300BF1F85EB51CE
:103CC000F5285C8F295C8FC20008280030B5436856
:103CD000C4691D4D1B1B994228BF1946022938BFD4
:103CE0000221642A28BF6422A2FB01321C0D44EA8F
:103CF0000234C3F3130CC4F31304A444C2F3132417
:103D0000A444124C0CEB127CA4FB0C4E4FEADE0ECA
:103D10000EEB8E0E0EEB8E0EACEB0E0CB3EB0C031B
:103D200062F100040A4A03FB02F205FB0422A3FB32
:103D300005352A449B0843EA82738B4228BF01F170
:103D4000FF33C0E9051330BD295C8FC21F85EB51DD
:103D5000F5285C8F10B504460121D0E9033098475F
:103D6000A3682069984701230021002284F82F309E
:103D7000C4E90C002164A4F8442010BD10B5002152
:103D80000446D0E903309847002384F82F3010BD53
:103D900090F82F30012B03D0022B54D00020704715
:103DA00070B58368044686B0006998470546D4E933
:103DB0000C20A369E1691A44861A0B44616812EA6F
:103DC000260238BF0246A81AA1EB030C604506463E
:103DD00009DD5B1A5A19636D01336365002366467A
:103DE00084F845306046002E12DD666A234686421E
:103DF00005A8029053F8450B019334BFB6182E4620
:103E000004F128030093334602F094FF20BB3246AE
:103E100094F82E306263C3B9226BA369216AAA1A8F
:103E20000B449A4211DB236DA5630120002103445A
:103E3000022284F844002365216484F82F20204660
:103E400006B0BDE87040FFF7A5BE94F82F30022BF6
:103E5000F5D0002006B070BDE36C059AA263591C32
:103E60000020238D84F84400E164D4E9000102F0CD
:103E7000DFFF022384ED100A84F82F30DFE700BF54
:103E800090F82F30032B09D110B590F82E30022B6B
:103E9000044604D1002380F82F3010BD7047D0E9CC
:103EA000033001219847A368206998470123002126
:103EB000002284F82F30C4E90C002164A4F84420C7
:103EC00010BD00BFEFF3108272B60B4B0B48DB6CDA
:103ED0000B491B6800685B6809688907C3F5804364
:103EE00003D5B3F5005F38BF013082F31088C3F308
:103EF0000D0303EB80307047340200202C060020B5
:103F000000000240054A136819B143F00103136031
:103F1000704723F001031360704700BF001000409A
:103F2000F0B5364A364C136823F0010387B07F2181
:103F30001360204604F0C0FB10B1002007B0F0BDB4
:103F400005462046A56284F8305003F0D1FC0646B1
:103F500010B12C4B9D81F0E72B480621CDE90001E3
:103F600007207F21CDE90201042369462046CDE9DF
:103F7000043603F033FF054610B1224B9E81DCE787
:103F8000012003F0A3FC1027204604F05BFA03464F
:103F9000052120465BBB03F07BFD40BB204603F0C0
:103FA000CFFD013F0544EFD1154804F019FB174A36
:103FB0001348936823F0E073936001264FF4E8639D
:103FC000A36284F8306003F093FC0E4B98B9C5F3FC
:103FD0000F1098810028B0D00D4BB3F8AA1001F053
:103FE000E3FB0C4B304683ED000A07B0F0BD054BF8
:103FF00000229A81A1E79F819FE700BF0010004047
:10400000340200203006002001000080000304502C
:104010000075FF1F54000020F0B587B0054602F080
:10402000F7FD10B9002007B0F0BD214E214C3368D8
:1040300023F001033360204604F0F6FA636D1E4955
:10404000002223F050036365A2652B7A059251F894
:10405000233002937F220423CDE9032312A3D3E963
:10406000002369462046CDE9002303F0B7FE03464E
:104070000028D7D1114FA9883A689162E988D162A6
:1040800053620F4AF960204601210E4C7161336181
:104090000D4913604FF48042237004F013FAB0FA14
:1040A00080F0400907B0F0BD2000F01406000000C9
:1040B000001000403402002054C5000828040020ED
:1040C0002C0600202806002040060020014B93ED1E
:1040D000000A704754000020034A137803F0FF00E1
:1040E0000BB10023137070472806002005490B68A8
:1040F0004FF0904201330B60536983F48053536156
:10410000704700BF300600200748084903680133A4
:1041100003600B684FF0904201330B60536983F4E6
:1041200080535361704700BF2C06002030060020EA
:104130008307084A06D5536801335360064B0122B2
:104140001A707047936801339360034B01221A7011
:10415000704700BF30060020280600202DE9F843F4
:104160001E46364BDFED367AD3ED000A354CDFF8CC
:10417000E890B4F806C0A388334D2DED028B80EE95
:10418000A78AACEB03038846174607EE903A99F8E6
:104190000930F8EEE77A05EBC30595ED007A67EE96
:1041A000887A67EE877AC0ED007A94ED020A284695
:1041B00001F016FB88ED000AD5ED017A94ED026A54
:1041C000D4ED046A95ED007A2048D6EE087A28EE00
:1041D000268A67EEA77AE8EE087AF1EEE76A67EEDC
:1041E000267AC7ED007A99F8002002EB420200EB34
:1041F000820002F0FDFCA37D93B1D4ED076A0A9B17
:104200009FED137AC0EE267ABDEC028BC6ED007AE4
:10421000D4ED087A67EE877AC3ED007ABDE8F883BB
:104220000A9B9FED0C7ABDEC028BF0EE477A86ED8F
:10423000007AC3ED007ABDE8F88300BFB89B002088
:1042400000F07F45949B0020DC9F0020F8CA000806
:104250000000C84200000000F49F00202DE9F04F4C
:10426000654B83B099783222902001F06DFF0446AF
:10427000002800F0BB80614A5F4B917D9888DB6825
:104280005F4E92F814A001EB4101019191684FEA51
:10429000134C4FF0000E0D0C6CF3070E4FF0000C9A
:1042A00065F3070C019D06EB85091D0E65F30F2EC6
:1042B00061F3174E0D0E090A61F31F6E5149B9F8EB
:1042C00004B065F30F2C0D68B9F806100027013112
:1042D000AAF1010A0BFB011160F3070799F808B076
:1042E00092F81090000ABAFA8AFA60F30F274FEAA0
:1042F0005A1AD0684FEA132849EA4A0963F3174764
:10430000DFF810A1C4F80EA068F31F674FEA104A47
:104310004FEA102860F3174C000E60733A4884F897
:104320000CA068F31F6C90F809A001982760C4F8EE
:1043300004E0C4F808C056F82000B2F81280C4F8AF
:1043400016003148527DC4F81210627784F81E803E
:10435000427AE2764FEA18284FF4FA7184F81AB0DC
:1043600084F81C9084F81F802184290A84F8231083
:104370002149264A886852F83A7084F8225002EBA4
:10438000CA014FEA154CC0F30D002D0E4E6884F89B
:104390002550C0F580413D0A994284F827504FEAE4
:1043A000174528BF19461A4A84F82850350A84F858
:1043B000267084F82A6084F82B505B1A350C3F0E67
:1043C000360E5B00490002EB400084F824C084F8FC
:1043D000297084F82C5084F82D6001F001FEC4F897
:1043E0002E0003B0BDE8F04F01F0E2BE024B188092
:1043F00003B0BDE8F08F00BF508600207498002005
:10440000F8CA0008B89B0020F49F0020DC9F002021
:104410004006002000B4C40470B5164D164E2B782B
:10442000164C6A68A26203EB430306EB83032A7A05
:104430005989AB7884F82C3020466B7884F82E307C
:10444000FFF744FC2A780E480E4B02EB420206EBC3
:104450008206F288B188013201FB02226169B3FB56
:10446000F2F3A0FB0303DB0849008B4238BF0B4685
:10447000236270BDF49F0020F8CA000808A0002045
:10448000CDCCCCCC00B4C40438B51B481B4990F843
:104490002F300022032B0A802BD0EBB9184C19487F
:1044A0002378194D194A03EB430300EB83000023E3
:1044B0002B701370FFF7B0FD88B1FFF7ADFF237CC1
:1044C0001BB96378022B00D038BD00232B700A483B
:1044D000BDE83840FFF73EBCFFF750FCDEE70C4B71
:1044E00019784A1C1A709F200A4A192301F068FEA5
:1044F000E3E780F82F20D1E708A0002050860020B5
:10450000F49F0020F8CA0008909B0020929B002096
:104510006486002074C5000810B50446C00732D474
:1045200014F0060F15D1220731D4E3060DD5254B23
:10453000254A1B7B25494FF47A6000FB03F3A2FB5D
:104540000323DB080A68C31A1364214B01221A7083
:1045500010BDFFF761FF1B4B1A7C0AB3610707D43C
:104560001C4B93F82F305A1E012A05D9032BDAD1A0
:10457000194B5B78002BD6D1184B164800221A70C5
:10458000FFF7E8FBCFE7FFF77FFF2207CDD50D4B05
:10459000134AD97A92ED000A987A02F08BFAC4E7AE
:1045A0005B78022BDAD00B480B4990F82F300A8049
:1045B000032B04D0002BB6D0FFF7E0FBB3E780F865
:1045C0002F20B0E7F49F0020CDCCCCCC7404002089
:1045D0005C00002008A0002050860020909B002056
:1045E000B89B00202DE9F0478EB0044603F068F92F
:1045F000DB4ADC4B127818602078002A00F010812A
:10460000012800F0A181022800F0AA83032840F0CD
:10461000A48161786022822001F096FD0446002882
:1046200000F08F81D04DD14B95F82F2002705A7831
:104630004270197C1A788170C2709A880271120ACD
:104640004271DA888271120AC2719A780272197AFA
:10465000C74A41721268597A8172997A0273130AB1
:104660004373130C120EC1728373C27303F028F9E3
:104670002074020A030C000E6274E074A374AB6C25
:104680002375190A1A0C1B0E6175A275E375EB6C84
:104690002376190A1A0C1B0E6176A276E3762B6D2F
:1046A0002377190A1A0C1B0E6177A277E3776B6DDB
:1046B00084F82030190A1A0C1B0E84F8211084F893
:1046C000222084F82330AB6D84F82430190A1A0CA8
:1046D0001B0E84F8251084F8262084F82730EB6D13
:1046E000A44D84F82830190A1A0C84F829101B0EDE
:1046F00084F82A2069682A6884F82B30E1622263F2
:1047000001F0FCFB9C4E84F83400326884F83820B9
:10471000030A010C84F8353084F83610736884F885
:104720003C30110A84F83910110C120E84F83B2029
:104730001A0A84F83D20914F84F83A101A0C000EA2
:104740001B0E84F8370084F83E2084F83F30D7F8F9
:10475000103484F840301A0A84F841201A0C1B0ED9
:1047600084F8422084F84330D7F81434844A84F81B
:104770004430116883481A0A84F845201A0C1B0E2D
:1047800084F8473084F846207F4BD7F8182484F803
:104790004820A3FB01317D4B170A1B6884F8497040
:1047A000890C170CB3FBF1F3120E794984F84B20F6
:1047B0001A0A84F84C3084F84A7084F84D2009684D
:1047C000AD68E5651D0C1B0E026884F84F300B0ABE
:1047D00084F851300B0CB06884F85230130A84F816
:1047E000501084F85420090E84F85530130C120E22
:1047F00084F8531084F85630010A84F85720030EC9
:10480000020C84F8580084F84E5084F8591084F84B
:104810005A2084F85B300EB0BDE8F04701F0C8BC08
:10482000431E3E2B00F2828001A151F823F000BF0D
:1048300049490008614D0008134600082D49000849
:104840002D4900082D4900082D4900082D49000870
:104850002D4900082D4900082D4900082D49000860
:104860002D4900082D4900082D490008774B000804
:1048700095490008DF4A00082D4900082D4B000823
:10488000E54900082D4900082D4900082D49000878
:104890002D4900082D4900082D4900082D49000820
:1048A0002D4900082D4900082D4900080F4A00082D
:1048B000454A00082D4900082D4900082D490008E7
:1048C0002D4900082D4900082D4900082D490008F0
:1048D0002D4900082D4900082D4900082D490008E0
:1048E0002D4900082D4900082D490008C34B000838
:1048F000854C00080D4D00082D4900082D49000881
:104900002D4900082D4900082D4900082D490008AF
:104910002D4900082D4900082D4900082D4900089F
:104920002D4900082D490008A14A000803258DF8EB
:104930001C0061788DF81D50022307AA802001F029
:104940003FFC0EB0BDE8F08763886178221D8F20A0
:104950000EB0BDE8F04701F033BC0525E7E700BF26
:10496000408600205800002008A00020F49F00206E
:10497000B89B002030060020D8AE0020BC9B002051
:10498000500000204486002083DE1B434C8600201C
:10499000488600206588012D17D1A74A237912780F
:1049A0009A4212D9A54A1370FFF76EFDA44A2378E4
:1049B000157000268DF81C3061788DF81D6002237B
:1049C00007AA802001F0FCFBBBE740F211256178CB
:1049D000ADF81C50022307AA802001F0F1FB0EB0B5
:1049E000BDE8F08763886178022B40F00582A288D9
:1049F000A2F15500B0F58A7FC0F0218240F2152463
:104A000007AA8020ADF81C4001F0DAFB99E78D4B36
:104A100061781A88002A40F0F8816088997038B16E
:104A20002079C00704D588480078002840F05382D8
:104A3000864A92F82F20013A012A00F2E6810122EB
:104A40001A707EE7824D66782B7800220592002B43
:104A500040F0DE811A461C46184619461F4609904A
:104A60007C48CDE90A42848A827D003C18BF01243B
:104A7000520042EA840213438488C0888DF83030A3
:104A80000022CDE907718DF83120ADF834003146B0
:104A90001A2307AA8320ADF8324001F091FB50E7BA
:104AA0006D4B6E4A6E496F480025C3E90155C3E955
:104AB0000355C2E90055C2E902550D601D604D6005
:104AC0005D618D60227805608DF81C2061788DF81D
:104AD0001D50022307AA802001F072FB31E7638892
:104AE000072B40F08C81554D676895F801A094F82C
:104AF00008E094F8098094F80A900FCD07AE0FC62D
:104B00001FFA87FC2B683380BCF5805F03D2BEF1AF
:104B1000010F40F2A38140F212256178ADF81850E0
:104B2000022306AA802001F04BFB0AE76588022DCC
:104B30001ED1207903281BD86379022B18D83F4B4C
:104B400098726179D972484B93ED000A01F0B2FF77
:104B50003B4A267861788DF81C6001201070002097
:104B60008DF81D002B4607AA802001F029FBE8E6FE
:104B70004FF405752BE76388012B40F03A812379C8
:104B8000022B00F236812D49487800F09D810228E1
:104B900002D1364A12784A7003F00102294B0A7496
:104BA000002504201D80FFF7B7FC22788DF81C201B
:104BB00061788DF81D50022307AA802001F000FBC8
:104BC000BFE663886178012B2AD12379022B27D88D
:104BD000274A002652F8330063F3070602EBC302AC
:104BE00060F30F26030A546863F317460025030C8D
:104BF000000E60F3070563F31F6664F30F25230AB5
:104C000063F31745230C63F31F65240E092307AADA
:104C10008420CDE907658DF8244001F0D1FA90E6B3
:104C20004FF40C74022307AA8020ADF81C4001F059
:104C3000C7FA0EB0BDE8F087F4CA0008F49F002060
:104C40005C00002050860020909B002008A00020DF
:104C5000929B0020949B002050A00020CC9F00201D
:104C6000300600204C860020B89B0020658600207E
:104C7000DC9F00200AD7233C00007A4400409CC5FA
:104C800000409C4563886178092B3CD12379022B35
:104C900039D8D4F805201FED097A07EE902AF4EEF2
:104CA000C77AF1EE10FAD4F809202CDD1FED0E7A48
:104CB000F4EEC77AF1EE10FA25D507EE102A5FED73
:104CC000116AB4EEE67AF1EE10FA1CDD5FED146ABB
:104CD000B4EEE67AF1EE10FA15D5874A874802EB72
:104CE000C303C3ED007A237902EBC302012482EDF2
:104CF000017A31220470ADF81C20022307AA80201B
:104D000001F05EFA1DE640F231248BE77C487D49D4
:104D100090F82F300022032B0A8073D0002B40F034
:104D20009A80794E794F7449002330463B7001F0E8
:104D30005DFE337C0546002B7BD17378022B78D047
:104D4000002D0CBF0520002025788DF81D0061780E
:104D50008DF81C50022307AA802001F031FAF0E5FB
:104D60006B4B61781C7804EB840204EB42028120D7
:104D7000243201F0E9F900283FF4E3AD4FF00122BD
:104D800002604FF480426349634B82604FF470527B
:104D90004160C26003210361F4220123C3750175E0
:104DA0004475827500F11803002C40D00B2202FBE1
:104DB00004005A4A1830D1889488013104FB01114B
:104DC00014681C60596051891972090A5972117A64
:104DD00099720B33834202F10C02ECD1504BD3F8A1
:104DE00090250260D3F894254260D3F8983583600B
:104DF00011E54FF40475EAE540F2151412E74FF49B
:104E00008975E4E580F82F208BE74FF4846409E787
:104E100006AB009304AA05AB03A902A8FFF79EF90D
:104E2000DDE90271DDE9054204982B7817E61846A2
:104E3000D4E7002332483B70FEF78CFF80E7324C0A
:104E40003848E2810280152407AA8020ADF81C4072
:104E500001F0B6F975E5FEF791FF62E7B8F1020FD0
:104E60003FF659AEA9F10A03502B3FF654AE3B0C66
:104E7000B3F5007F3FF64FAEB8F1020F05D1BAF19E
:104E8000020F1CBF284B83F800A01E4B08978DF81B
:104E90001D808DF81EE08DF82490002707AD1F803F
:104EA0000FCD194E0FC62B6833800220FFF734FB5D
:104EB00022788DF8182061788DF81970022306AADF
:104EC000802001F07DF93CE502281CBF164B1870CC
:104ED00002234B7062E615481A614168D9609988CF
:104EE00000689860012421445C7099800EB0BDE890
:104EF000F047FFF7B3B900BFDC9F00205C00002043
:104F000008A0002050860020F49F0020909B0020E5
:104F1000F4CA000800B4C404C0006000F8CA000865
:104F20000070FF1F688600206586002074980020AE
:104F30007F49804BD1F8FC20002042F080722DE99F
:104F4000F041C1F8FC2058601A687B497B4842F068
:104F500001021A608A687A4B4068DB6942F4805229
:104F60008A60784A203BD168526D18BF0123B0F5A2
:104F7000803F18BF43F00203B1F5E06F9EB018BF49
:104F800043F00403002A00F0CF806F496F4A09689C
:104F900091426F4A6F49126818BF43F010035207DD
:104FA0006D4A58BF43F02003914200F0B38043F4B0
:104FB00080736A4C6A48236001F036FC694B6A4A88
:104FC00093E8030082E8030003F1100103C902F132
:104FD0000805203385E8030093E8030002F110037D
:104FE00083E8030011465E4801F096FC05465F48E1
:104FF00001F07AFB01F00AF85D4B5B691BB1236895
:1050000043F080032360FEF78BFF18B9236843F059
:1050100040032360FFF75AF8564E574B00934FF466
:10502000804286ED000A4FF48063544954484C4F47
:10503000FEF7F0FD0C21534805F01CFF3C215248BF
:1050400005F01AFF00F0A8FD00F084FEF88900F0DA
:105050001DFFD6ED007A23684C494D4A0293FDEEC0
:10506000E77A00239D4218BF0A464FF001080193DA
:10507000CDED037A60210492CDF80080454A464D7B
:1050800006A8FDF70BF906A8FCF73AFF297883B2CA
:1050900001EB080C06AA9F2085F800C001F090F8EB
:1050A000236813F04D0F18D03C4B3D4D3D4F2F4E14
:1050B00083F800806B6983F008036B6102F000FCE9
:1050C000044602F0FDFB031B632BF3D83946304640
:1050D00000F0DCFF01F0B6F8F3E7FFF7D5F996ED45
:1050E000000AF97AB87A01F0E5FC3B7B2E4A2549A3
:1050F0004FF47A6000FB03F3A2FB032309682B4AF9
:10510000DB08C31A0B6482F80080FEF74FF91EB06B
:10511000BDE8F0812649274A27480A442749121A40
:105120008A427FF646AF42E743F008032DE700BF0F
:1051300000ED00E0001000E0002004E03402002058
:10514000EC010020700300205000002000B4C404D3
:1051500000100240000001200000012044860020D1
:10516000F49F002048C70008DC9F0020BC9B002063
:10517000D8AE0020B89B002048C50008400600209B
:1051800008A0002074040020C004002090C500087E
:1051900098C50008A0C5000864860020408600204D
:1051A00000040048E5450008CDCCCCCC5C000020D4
:1051B00084000020FCCB00080000002000F8030859
:1051C0002DE9F04FB54BB64CD3F8048095B002F002
:1051D00077FB0646FEF780FF002840F0AA81B14D1C
:1051E0002846FEF7D5FD002840F0AE81AE49AF4815
:1051F00000F04CFF00F03EFD002840F00F8200F070
:10520000FDFC431E032B14D8DFE813F004001A0240
:10521000350227020427A64B5A78022A00F078822A
:105220001A7C82F001021A74002323803846FFF7AB
:1052300073F9DFF8D49205966378002B64D000F000
:1052400077FF002860D0D4E903B6ABEB0607B7F5CB
:10525000FA7F28BF4FF4FA771FFA87FA0AF104029F
:105260005200A17892B2912000F06EFF00284BD03E
:10527000B4F804C0226900216CF307014FEA1C2C2A
:105280006CF30F2162F317414FEA122C6CF31F618C
:1052900001604FF0000C110C61F3070C110E61F36B
:1052A0000F2CA1684FEA1A2367F3174C63F31F6CA6
:1052B000B34502EB0103C0F804C000F1080EC3F3CC
:1052C0000D0312D00022093039F813100EF8121015
:1052D00001334FEA112CB3F5804F00F812C002F1F0
:1052E000010208BF00239742EED800F061FFD4E925
:1052F00003233B44934223619ED395F82F3000272C
:10530000032B677000F01A82059E00F09BFF95F852
:105310002F30032B00F0FE80022B20D1D5E905436E
:10532000E41A644B00201B689847AB6BC21A944286
:1053300040F28F805E4A6049127802EB420201EB34
:1053400082012344CA88898801321B1A01FB022288
:105350005A48A2FB032300219042994179D2584C2C
:105360002388002B40F08F80564C2378002B6AD185
:10537000554F3B68F31A272B6BD9DFF8909199F8BA
:1053800000200AB9F92B64D92D2200210DF1230048
:10539000FCF722FE95F82F308DF821304B4B444D11
:1053A0001B788DF820304A4B07951B788DF82230FA
:1053B00002F086FA474ADFF858A11268831AB3F55B
:1053C000FA6F2CBF002301238DF82330424B434A50
:1053D0001B88ADF83030938A687A927D8DF833203F
:1053E000003B18BF01238DF83430AB8800EE103A33
:1053F0003B4B03EBC0003B4BD3ED000A9AF8003067
:105400008DF824308DF83230374B0A93B8EE400ACD
:10541000364B0B9300F0E4F99AF800308DED130A47
:10542000002B40F09681324B1878324B00EBC000D5
:1054300003EB002007A901F045FF0123237000239F
:105440003E6089F8003000F0EDFC0546002800F0D1
:105450002A81294804F0A6F8284BB1054FF008022C
:1054600054BF9A619A620D4B254A5B681168A3EBA1
:105470000803994238BF1360224A1368013313604E
:1054800015B0BDE8F08F00F0CDFC074600287FF492
:105490006BAF208800F0FAFC278065E7001000E081
:1054A0005086002008A00020E5450008BC9B002095
:1054B000F49F002048C50008F8CA0008FF700200E9
:1054C00068860020708600206C860020668600209A
:1054D000919B0020580000208C980020949B002075
:1054E000DC9F0020B89B0020109A0020909800209C
:1054F00071860020748600201803002000040048F4
:105500004C86002048860020400600205C000020D9
:10551000929B00206478002C7FF421AF9148FEF725
:10552000AFFC95F82F30002B3FF419AF8E4A147062
:10553000F2E68C4D00232380FEF7A6FF2846FEF7F7
:1055400027FC00283FF452AEAB69AF6BD5F814A02E
:1055500086484FF0904BFF1A4FF40062844BCBF813
:1055600018204FF4804100933A46534600F0DCFE89
:10557000804B01934FF0C0097F4B7C480093CDF8DE
:10558000089053463A464FF4804100F059F9AA6911
:105590001146002352460591A1FB0901FCF7F6FADA
:1055A000764BDFF800921A78754BA9F80000059940
:1055B0009A75DFF8DCC12A6CDFF8AC91714899600C
:1055C000DA60714994F800E001228CF80020027042
:1055D00089F8002095F844200A704FF40061C3E96F
:1055E000007ACBF828101A742A8D5A8295F82C204C
:1055F0001A7595F82E205A75BEF1000F7BD1677889
:10560000002F7FF4F3AD5748FEF73AFC95F82F30A2
:10561000002B3FF4EBAD89F80070E7E5DFF87491FB
:10562000024699F80010554801F0D6FD074600F0F3
:10563000E5FA431E032B5AD8DFE803F0322F476FF9
:1056400004274E4B5A78022A1CBF50490A70002288
:105650001A74228002225A70E8E54D4B1B78002B09
:105660003FF4E7AD424AD3889288991A17297FF60A
:10567000E0AD00275BE04749474B0A780132A3FBC6
:105680000203D01A03EB50039B08C3EBC303D21AE7
:105690003C4B0A7001221A70CBE547F00407D0E7B3
:1056A00047F00407B7E53D4F3D483B7803EBC303A4
:1056B00000EB032000F0BCFB00283FF4CAAE3B78AF
:1056C000257083F001033B70C3E699F80020324B4C
:1056D0000132A3FB0213D11A03EB51039B08C3EB66
:1056E000C303D21A274B89F8002001221A70002F19
:1056F0007FF49CAD9DE500232361A3880133A38043
:105700004FF48073C4E9027A2380FEF7A7FD76E7A1
:105710001E4A12785A70012285E51D4B1B78002B1A
:10572000E5D0134AD3889288991A1729DFD91344F0
:10573000124A5B0847F00207938077E50948FEF7B5
:105740009FFB95F82F30002B3FF476AD064B1F7072
:1057500072E512AB009310AA11AB0FA90EA8FEF7C9
:10576000FDFC60E608A00020909B00204006002081
:10577000949B002090980020109A0020F49F002015
:10578000749800205C000020919B0020658600201A
:10579000929B002066860020254992247186002075
:1057A000748600208C98002082B0CDE9000178B189
:1057B00007EE901ADFED086A07EE100AF8EE677A36
:1057C000B8EE477A67EEA67A87EE870A02B070478E
:1057D0009FED020A02B0704700803B4500404E45F5
:1057E00020EE200A9FED067AC0EE077A90ED017A4E
:1057F00090ED000A77EEC77A27EE800A704700BF67
:1058000000F07F45C2B110B40C4CC3430A4411F8F8
:10581000010B584000F00F03914254F8233083EA03
:10582000101303F00F0054F8200080EA1313EED198
:10583000D8435DF8044B7047704700BF74C7000839
:105840002DE9F04F85B00E46B2FBF1F106FB112EAB
:10585000109900293DD0DDE90E984FF0000A013A79
:105860000746029200937446D3465546CDF80CE0A5
:105870000193109A009800235146FCF787F9A8423B
:105880000BF1010B28D037D900224FF6FF7137F802
:1058900014300134B44208BF0024994205F10105D7
:1058A00028BF19469A4238BF1A468542EFD1A9F857
:1058B00000100546A8F80020DDE900329B1800938F
:1058C000109B4AF1000A9B4509F1020908F1020800
:1058D000CFD105B0BDE8F08F65B1029B2B44B3FB7F
:1058E000F6F206FB123337F81330A9F80030A8F8A7
:1058F0000030E1E7039BF6E7284600224FF6FF71F0
:10590000D5E700BF4FEAE20C0CEB4C0C01EB8C111D
:1059100002F007024FF0010C0CFA02FC5FFA8CFC5B
:10592000425C5BB1012B04D14CEA020C00F801C0CF
:1059300070478CEA020C00F801C0704722EA0C0C98
:1059400000F801C0704700BF4FF410620021FCF75F
:1059500043BB00BFBF2903D85F2A01D8FFF7D2BFDE
:10596000704700BF30B591429DF80C4002DC1546EF
:105970000A4629464FEAE30C0CEB4C0C03F00705F2
:105980004FF0010E02EB8C1C0EFA05FE0131604453
:105990005FFA8EFEBF2A09D85F2B07D890F800C0A7
:1059A0007CB1012C4EEA0C0506D1057001328A4209
:1059B00000F10100EED130BD8EEA0C0C80F800C081
:1059C000F4E72CEA0E0C80F800C0EFE72DE9F04375
:1059D0009A429DF81C5002DC1C4613462246BF2901
:1059E00036D85F2A23EAE37CA8BF5F2262452FDB1B
:1059F000D64306F00706FF2727FA06F6F6B24FEA67
:105A0000E2080AE00DBB29EA04040133B2EBC30F3C
:105A100000F80C404FEAC30C1ADB4FEAEC0303EB2F
:105A20004304B8EBEC0F0CF0070E01EB841C07FAF3
:105A30000EFE0CBF3446FF24012D10F80C9004EA32
:105A40000E04DFD149EA0404DFE789EA0404DCE755
:105A5000BDE8F0832DE9F04F1D4685B01B789DF819
:105A600038708946002B47D0064688469146AB469B
:105A7000203B602B224ACDF8088094BF03EB8303C0
:105A80009B23D31801930025CDF80CB0052D16BF2C
:105A9000019B00245C5DCA464FF0000B06E00BF151
:105AA000010BBBF1080F0AF1010A17D0B8F1BF0FC3
:105AB000F5D844FA0BF303F00103BAF15F0F83EA60
:105AC000070352464146304601D8FFF71BFF0BF152
:105AD000010BBBF1080F0AF1010AEAD10135062DCD
:105AE00008F10108D2D1DDE9028B1BF8013F08F172
:105AF0000608002BBCD1C146484605B0BDE8F08F72
:105B0000B4C70008034B02689A4200D07047FEF702
